{
  "contractName": "MyContract",
  "abi": [
    {
      "constant": true,
      "inputs": [],
      "name": "x",
      "outputs": [
        {
          "name": "",
          "type": "uint256"
        }
      ],
      "payable": false,
      "stateMutability": "view",
      "type": "function"
    },
    {
      "constant": true,
      "inputs": [],
      "name": "s",
      "outputs": [
        {
          "name": "",
          "type": "string"
        }
      ],
      "payable": false,
      "stateMutability": "view",
      "type": "function"
    },
    {
      "constant": false,
      "inputs": [
        {
          "name": "_x",
          "type": "uint256"
        },
        {
          "name": "_s",
          "type": "string"
        }
      ],
      "name": "initializ",
      "outputs": [],
      "payable": false,
      "stateMutability": "nonpayable",
      "type": "function"
    },
    {
      "constant": false,
      "inputs": [],
      "name": "increment",
      "outputs": [],
      "payable": false,
      "stateMutability": "nonpayable",
      "type": "function"
    }
  ],
  "bytecode": "0x608060405234801561001057600080fd5b506104a7806100206000396000f3fe608060405234801561001057600080fd5b506004361061004c5760003560e01c80630c55699c146100515780634ea2c1e31461006f57806386b714e214610134578063d09de08a146101b7575b600080fd5b6100596101c1565b6040518082815260200191505060405180910390f35b6101326004803603604081101561008557600080fd5b8101908080359060200190929190803590602001906401000000008111156100ac57600080fd5b8201836020820111156100be57600080fd5b803590602001918460018302840111640100000000831117156100e057600080fd5b91908080601f016020809104026020016040519081016040528093929190818152602001838380828437600081840152601f19601f8201169050808301925050505050505091929192905050506101c7565b005b61013c6102e6565b6040518080602001828103825283818151815260200191508051906020019080838360005b8381101561017c578082015181840152602081019050610161565b50505050905090810190601f1680156101a95780820380516001836020036101000a031916815260200191505b509250505060405180910390f35b6101bf610384565b005b60335481565b600060019054906101000a900460ff16806101e657506101e5610397565b5b806101fd57506000809054906101000a900460ff16155b610252576040517f08c379a000000000000000000000000000000000000000000000000000000000815260040180806020018281038252602e81526020018061044e602e913960400191505060405180910390fd5b60008060019054906101000a900460ff1615905080156102a2576001600060016101000a81548160ff02191690831515021790555060016000806101000a81548160ff0219169083151502179055505b8260338190555081603490805190602001906102bf9291906103a8565b5080156102e15760008060016101000a81548160ff0219169083151502179055505b505050565b60348054600181600116156101000203166002900480601f01602080910402602001604051908101604052809291908181526020018280546001816001161561010002031660029004801561037c5780601f106103515761010080835404028352916020019161037c565b820191906000526020600020905b81548152906001019060200180831161035f57829003601f168201915b505050505081565b6001603360008282540192505081905550565b600080303b90506000811491505090565b828054600181600116156101000203166002900490600052602060002090601f016020900481019282601f106103e957805160ff1916838001178555610417565b82800160010185558215610417579182015b828111156104165782518255916020019190600101906103fb565b5b5090506104249190610428565b5090565b61044a91905b8082111561044657600081600090555060010161042e565b5090565b9056fe436f6e747261637420696e7374616e63652068617320616c7265616479206265656e20696e697469616c697a6564a165627a7a7230582022151ad2be28aa88bc0c18681886649dad047cc19cf926f6b710125cdf8725790029",
  "source": "pragma solidity ^0.5.0;\n\nimport \"../node_modules/zos-lib/contracts/Initializable.sol\";\n\ncontract MyContract is Initializable {\n    uint256 public x;\n    string public s;\n\n    function initializ(uint256 _x, string memory _s) public initializer {\n        x = _x;\n        s = _s;\n    }\n\n    function increment() public {\n        x += 1;\n    }\n}",
  "sourcePath": "/Users/shailendrashukla/projects/github/GeorgeBrownCollege/bcdv1012/lec6/project/contracts/MyContract.sol",
  "compiler": {
    "name": "solc",
    "version": "0.5.8+commit.23d335f2.Emscripten.clang"
  },
  "schemaVersion": "3.0.11",
  "updatedAt": "2019-06-17T23:46:54.318Z",
  "devdoc": {
    "methods": {}
  },
  "userdoc": {
    "methods": {}
  }
}